:020000040001F9
:10B0000060350020F5B001000FB1010011B1010061
:10B010000000000000000000000000000000000030
:10B0200000000000000000000000000013B101005B
:10B03000000000000000000015B1010017B1010080
:10B0400019B1010019B1010091BB010019B1010052
:10B0500019B1010000000000D9B6010019B10100CA
:10B0600019B1010019B1010019B1010019B10100B4
:10B0700019B1010019B1010019B1010019B10100A4
:10B0800019B1010071B8010019B1010019B1010035
:10B09000C7BA010019B10100D1BA010019B101000C
:10B0A00019B1010019B1010000000000000000000A
:10B0B0000000000000000000000000000000000090
:10B0C0000348854600F062FA0048004791DB010022
:10B0D00060350020401E00BF00BF00BF00BF00BFA2
:10B0E00000BF00BF00BF00BF00BF00BF00BFF1D165
:10B0F000704700000321094802680A4302600848BB
:10B1000002680A4302600748804707480047FEE795
:10B11000FEE7FEE7FEE7FEE7FEE70000240500404D
:10B1200054050040F1BA0100C1B0010030B50B4632
:10B13000014600202022012409E00D46D5409D4211
:10B1400005D31D469540491B254695404019154697
:10B15000521E002DF1DC30BD03460B439B0703D08C
:10B1600009E008C9121F08C0042AFAD203E00B78CC
:10B170000370401C491C521EF9D27047D2B201E044
:10B180000270401C491EFBD270470022F6E710B542
:10B1900013460A4604461946FFF7F0FF204610BD45
:10B1A000F0B51FB40646002082B005464024019148
:10B1B00000901BE0019922460F46304600F008FA45
:10B1C000049A059B801A994110D3104619462246CD
:10B1D00000F0EEF9361A8F41019722460120002136
:10B1E000009F00F0E5F938184D4100902046641E9C
:10B1F0000028DFDC019B00982946324607B0F0BDED
:10B20000F0B507460846584087B0C00F0490480084
:10B210000E46590040084908BC1A884105D23846F4
:10B2200031461E4617460B4602465800400810435A
:10B230004CD0300D039040055900400D490D05904C
:10B24000401A0290402872DA18030121000B090508
:10B250000843019004980092002805D001995242B9
:10B260000020884100920190029840210A1A019919
:10B27000009800F09DF905460C466B4607CB00F0A0
:10B28000B8F9C0197141039A0E0D0023D717564023
:10B290001A467A40164344D0049A002A2DD0029AC6
:10B2A000012A039A15DC1205C01A914101263605C0
:10B2B000001C7141D20F059ED207009301920296A5
:10B2C0002A46234600F0B5F907B0F0BD38463146AE
:10B2D000FAE71605224A0F46B218C01AB7410121F3
:10B2E0000905001C4F4100187F411146181879418B
:10B2F000E20F10436D19644113E0E2076D08154336
:10B300006408C2071443039A01261205C01A91412A
:10B310003605001C7141CE07400830434908C0186B
:10B3200051412A46234600F077F9CDE7FFE704981C
:10B3300001224000C117121A00238B4104983146A4
:10B34000C417381AA141EEE730B40124E407634082
:10B3500030BC55E730B40124E407614030BC4FE70E
:10B360000000E0FFF0B51FB488B00B9909980024E5
:10B3700048400999C00F490049080991C0070B9935
:10B380000090490049080B9109990898A64608437E
:10B390001CD00B990A98084318D009980124400042
:10B3A000420D4800410D099824050003000B20437D
:10B3B00009900B980003000B20430B9050181C4978
:10B3C0004018002201901446104605E00020014676
:10B3D0000DB0F0BD032801DA034600E003239C46CC
:10B3E000C11A0AAE0AE05F0008ADED5B4F00F75BE3
:10B3F0007D430027AA187C41491C5B1E6145F2DD94
:10B40000410004AB5A522104120C0A43240C401C84
:10B410000828DFDB019802900099704601910090A6
:10B42000059B049A0799069800F003F9D0E70000FD
:10B430000DFCFFFFF0B50C465C4085B0E40FE4075F
:10B4400003944C00002664085900944649080246BB
:10B450000296224321D062460A431ED06200570D55
:10B460004A000E032303550D012402462C492405EE
:10B47000781B1B0B360B4018234326436146009074
:10B480001C46501AB44103D30098401C009002E0BF
:10B49000921800985B41002803DA0020014605B0AD
:10B4A000F0BD0020012109050746864611E06446EB
:10B4B0001D46141BB54106D36546521BB341744665
:10B4C00007430C43A646CD07400849082843921875
:10B4D0005B4105460D43EAD11046184313D0604640
:10B4E000194650407140084306D06046101AB341D7
:10B4F00006D20122002306E000220123DB0702E03E
:10B500000122D2435310009874460105381C614152
:10B51000029C039D0019694100F07EF8BFE700001E
:10B52000FD0300004A0009030123090B1B05194311
:10B530000A4B10B5520D9A4202DA0020014610BDA6
:10B54000064B34339A4203DC9A1A00F041F810BDDE
:10B55000034BD21800F02CF810BD0000FF030000D0
:10B56000CDFBFFFF10B5002904DB0124E4074042B6
:10B570008C412146002B04DB1C460123DB07524291
:10B58000A341994200D1904210BD0000064C012514
:10B59000064E05E0E36807CC2B430C3C984710347B
:10B5A000B442F7D3FFF790FD3CED01005CED0100E4
:10B5B00010B5202A04DB0146203A9140002010BD3E
:10B5C000914020239C1A0346E3401943904010BD4C
:10B5D00010B5202A04DB0846203AD040002110BDD7
:10B5E0000B46D340D0402024A21A9140084319466C
:10B5F00010BD10B5202A06DBCB170846203A1041B3
:10B60000C1170B4306E00B461341D0402024A21A79
:10B6100091400843194610BD10B5002B08DA0024EC
:10B62000401C614192185B411A4301D1400840001F
:10B6300010BDF0B51FB482B005460C0003D008461B
:10B6400000F0AEFB02E000F0ABFB203002460090C1
:10B6500021462846FFF7ACFF049B059A04460F4697
:10B6600018431143084314D0184610431BD00098C8
:10B6700040210A1A18460599FFF7AAFF05460E460B
:10B68000009A05990498FFF793FF084305D001201D
:10B6900004E02046394607B0F0BD0020C11705433D
:10B6A0000E432C43374300990E986305401A7905E1
:10B6B000E40A00220C43FD0A0A3002D500200146AC
:10B6C000E9E70105101969410C9C0D9D00196941BC
:10B6D000FFF7A2FFDFE70000F0B50025FF248BB0E5
:10B6E000013401262F460195204602F049FD00282D
:10B6F00008D047484068304204D04648002120180E
:10B7000035430160241D76007F1CA4B2042FEBD3C7
:10B71000FF207D3002F034FD002807D03E48002194
:10B720000160400705433D48006901903C4C2807F3
:10B7300012D0012700262F420AD03A48B200111831
:10B7400008690969C004C00E8903A258890F90478F
:10B750007F00761C042EEED3002D57DA00200590D2
:10B76000401E4DE0A119403108788506AD0E42B269
:10B77000521C39D00121A940089A0091114233D0BE
:10B7800080090390284601F087FE8000205804902D
:10B79000002802D10398032826D103980099032892
:10B7A00002D10598084305901F4AA8008018006838
:10B7B000019A8003800F114202D0022802D013E0C8
:10B7C000032811D10399032907D102281CD0022193
:10B7D000284602F0C5FC7F1CFFB20498002803D065
:10B7E000049A284603999047761C042EBAD3002F5A
:10B7F0000CD00A4800690199884207D00190059849
:10B8000000273E460890ADE70321E1E70BB0F0BD0D
:10B8100000630040006000407C6100400005005073
:10B82000CC28002000650040000700508307FF225D
:10B83000DB0E9A408907090E994000280BDA0007B1
:10B84000000F0838830808489B001818C369934301
:10B850000B43C3617047830804489B001B1818689A
:10B86000904308431860704700ED00E000E400E0FA
:10B8700010B506490020086048608860C860034928
:10B8800040390860486003F023F810BD40110140C2
:10B89000F7B518214843214916464418E16A88073C
:10B8A000800F02280BD0A06A626A801A401E01D560
:10B8B000226A1018864202DD89072DD00646002E26
:10B8C0002AD00027A06A616A451A6D1E01D5206A38
:10B8D0004519616A206A411AA94201DC616A451A68
:10B8E000B54200DB3546616AE0692A464018019995
:10B8F000FFF732FC01987F1940190190606A761BAE
:10B9000040196062606A216A884201D10020606249
:10B91000002ED7D13846FEBD0020FEBD5C200020A1
:10B920000FB408B504A900916A46039900F004F821
:10B9300001B008BC04B01847F7B598B007A802904A
:10B94000402000250495039018980C460595069014
:10B950002178641C002974D0252907D002A800F0A2
:10B96000EFF905980028F3DA1BB0F0BD00210123A0
:10B970000227042208262078232817D02B2813D04A
:10B980002D280DD030280DD0002220780346303BE2
:10B990000A2B0ED20A235A431218303A641CF4E7D9
:10B9A000194304E0394302E0114300E03143641CD1
:10B9B000E1E70023C7B22E2F0AD1641C2078074686
:10B9C000303F0A2F04D20A277B431B18303BF4E791
:10B9D0006C280DD068280BD0702852D00BDC25289D
:10B9E0005AD058282ED063280CD0642858D110E0A3
:10B9F0002078641CECE7732832D0752817D078289B
:10BA00004ED11FE01A981A9A0068011D1160017842
:10BA100043E01A981A9F0068061D3E600068019175
:10BA2000009201460A2202A800F0B6F838E01A98FF
:10BA30001A9F0068061D3E600068009201910A226C
:10BA400009E02FE01A981A9F0068061D3E60006802
:10BA5000009201911022014602A800F0FFF81FE0B9
:10BA60001A981A9A0068011D116006683178761CD0
:10BA7000002915D002A800F063F905980028F5DA2E
:10BA80000EE01A981A9A00680823011D11600168D7
:10BA9000102200960195DFE7252102A800F050F959
:10BAA000641C5EE70598002800DC5DE70498002828
:10BAB00004D0024607A91898FFF7EAFE04990598F2
:10BAC0004018059050E710B502F098FE10BD000038
:10BAD00010B506484068002805D08047002801D0EE
:10BAE00000F06CFE10BD01F08BFE10BDD4200020D4
:10BAF00010B501F0E3FE002805D01F491D4848603D
:10BB0000C8131E4988611E48018CC9B201290BD196
:10BB1000828C120708D1028D1206120F042A03D15B
:10BB2000828D1206120F0AD0012921D1818C0907BA
:10BB30001ED1018D0906090F0A2904D007E0114A18
:10BB400001219160F5E7828D1206120F05D00D29B3
:10BB50000ED1808D0006000F0AD10B480168012923
:10BB600004D00A49016001680129FCD1C02141616A
:10BB700010BD0000DFFF07C000050040006C004062
:10BB8000C00F00F00006004000EC06407593000076
:10BB900010B502F087FF10BDFFB583B00E467042AE
:10BBA0000D9F0C9C0090002900DB0846012502E057
:10BBB000FFF7BCFA6D1C05998842F9D20698A84295
:10BBC00000D90546002C04D0002E01DB780700D5F3
:10BBD000641EB80702D50698002811D0F8070FD1C7
:10BBE000002C0DD02046641EA84209D920210398BC
:10BBF00000F0A6F80398C0680028F1DA07B0F0BD9D
:10BC0000002E02DA2D21009E02E0780707D52B21B5
:10BC1000039800F095F80398C0680028EEDBB80799
:10BC2000800F022811D1069800280ED1002C0CD0CC
:10BC30002046641EA84208D93021039800F080F8FD
:10BC40000398C0680028F1DAD8E7019700943146DC
:10BC5000069B059A039800F001F8CFE7FFB581B085
:10BC600001271E463D460A9C029802E0FFF75EFA55
:10BC70006D1C03998842F9D2AE4200D935460B9823
:10BC8000C0071CD1002C1AD00B98800701D5002EBC
:10BC900002D0202000900BE03020FBE700990198B3
:10BCA00000F04EF80198C068002845DB002C06D053
:10BCB0002046641EA842F1D801E003984743394664
:10BCC0000298FFF733FA01460398814201D301201D
:10BCD00000E000203146761E012901DD012100E04F
:10BCE00000210843E9D1154E39460298FFF71EFAA4
:10BCF0000146029A7943511A0291315C019800F091
:10BD00001FF80198C068002805DB38460399FFF743
:10BD10000DFA0700E8D10B98C0070DD0002C0BD00E
:10BD20002046641EA84207D92021019800F008F897
:10BD30000198C0680028F1DA05B0F0BD20ED0100DF
:10BD400010B5044680686368421C934205DB236893
:10BD50001954A260E068401CE060A26860688242FA
:10BD600009D121682069FFF793FDA168884203D0BB
:10BD70000020C043E06010BD0020A06010BD0000A6
:10BD80000FB410B503A9044B044A029800F0F6F86A
:10BD900010BC08BC04B01847A3D70100F420002051
:10BDA0002021020C01D010211046020A01D01046B9
:10BDB0000839020901D01046091F820801D0104637
:10BDC000891E420801D0881E7047081A704730B497
:10BDD0007446641E2578641CAB4200D21D46635D28
:10BDE0005B00E31830BC184702E008C8121F08C106
:10BDF000002AFAD170477047002001E001C1121FEC
:10BE0000002AFBD170470000F0B51FB486B0099836
:10BE1000089A030D0021024314D05148514A1818C2
:10BE2000504305141198012810981AD0281A401C64
:10BE300000264D4F4D49009601910490002812DADA
:10BE4000444211E01198012449A3012801D110981E
:10BE5000C1430698119A84600360C26041600BB0D0
:10BE6000F0BD4042E4E70446210500203F4A001CA3
:10BE700051410391029012E0E00707D032463B4661
:10BE800001990098FFF76EFA0191009032463B4607
:10BE900010461946FFF766FA06460F466410002C56
:10BEA000EAD10498039B0028029A0999089806DAB7
:10BEB000FFF758FA019B009AFFF754FA05E0FFF7E5
:10BEC000B9FA019B009AFFF7B5FA04460E46002224
:10BED000284BFFF747FB03D80020C043014607E08B
:10BEE0000022254B20463146FFF78AF9FFF71AFB5F
:10BEF000102409E0002C0ADB0A220023FFF750F986
:10BF0000079B30321A55641E02460A43F2D11122B1
:10BF1000641C079B121B1C19119B012B03D00123CE
:10BF200008430ED10AE0084304D0112010900020ED
:10BF3000119077E71098151A6D1E0BE01098824249
:10BF400002DD00236D1C03E0824201DA00236D1E36
:10BF5000002BEED0069811998260C16030C07EE758
:10BF600001FCFFFF104D0000000014400000F03FF6
:10BF7000300000000000F0430000E03FFFB597B044
:10BF80000646002518E2252877D100242746FD49DA
:10BF9000049400E00443761C32780120203A90405B
:10BFA0000842F7D130782A280ED002223078014694
:10BFB0003039092916D804990A23594330394018D1
:10BFC0001443761C0490F1E7189802C80491189065
:10BFD000002904DA0120400304434842049002206F
:10BFE0000443761C30782E2814D104200443707842
:10BFF000761C2A2809D11898761C80C8189009E068
:10C000000A214F43303FC719761C3078014630393A
:10C010000929F5D930786C2810D006DC4C281AD0C4
:10C0200068280ED06A2817D104E0742813D07A2823
:10C0300012D110E00120400504430CE00121090564
:10C0400001E0032109050C437178814203D10120ED
:10C0500000052418761C761C3078119066280BD0C9
:10C0600013DC58287DD009DC00287BD04528F6D089
:10C070004628F4D047281AD1A5E118E0632835D026
:10C08000642870D0652812D19DE170286CD008DC3E
:10C090006728F1D069287BD06E280DD06F2806D193
:10C0A000BAE073282ED0752871D0782859D01A9A02
:10C0B000199990476D1C7EE16002400F022809D05B
:10C0C00003280DD00428189801680DD00D60001DBC
:10C0D000189070E11898EA1701680D604A60F6E759
:10C0E000189801680D80F2E70D70F0E718986A461D
:10C0F00001781172001D18900020507202A8009063
:10C10000012005E0189802C8189000200091C04353
:10C1100061070DD5002101E00199491C0191B94247
:10C1200012DA8142F8DB009A515C0029F4D10BE06D
:10C13000002101E00199491C01918142FADB019A39
:10C140000099895C0029F5D1019904981A9B471A36
:10C1500021463846199A00F097FA01994019451876
:10C160000BE04FE02CE113E04EE0009800990078DE
:10C17000491C00911A9A199990470198401E019004
:10C18000401CF2D1214638461A9B199A10E137E03B
:10C190000A200021009001916002410F022907D07E
:10C1A000189A01CA1892C2179446032908D00AE0C7
:10C1B0001898C01DC108C90005C91891944607E028
:10C1C00000B2C2179446042902D140B2C1178C466E
:10C1D00000226146944506DA0A4600214042914118
:10C1E0008C462D2102E0210504D52B216A461173CE
:10C1F000012103E0E10701D02021F7E7029155E09A
:10C200000A200AE0102008E01020009000210420FD
:10C2100004430191082703E00820002101910090C8
:10C220006002410F022907D0189A01CA1892002211
:10C230009446032908D008E01898C01DC108C90019
:10C2400005C91891944603E080B2042900D1C0B218
:10C2500000210291210729D51199702906D0009A51
:10C260001021019B4A401A4305D00EE040216A4646
:10C270001173012108E06146014306D030216A466E
:10C2800011731199517302210291009A0821019BA7
:10C290004A401A430AD16146014301D1610705D5DD
:10C2A00030216A46117301217F1E0291119958298C
:10C2B00004D035A10E910DA90D910DE037A1F9E73C
:10C2C0006146019B009AFEF76BFF0E9B8C469B5CC0
:10C2D0000D9A521E0D92137061460143F0D10D98D4
:10C2E00005A9081A20300190600703D50120000439
:10C2F000844300E001270198874201DD381A00E0FD
:10C300000020019900904118029809180498401AD9
:10C310000490E00306D421461A9B199A049800F071
:10C32000B3F94519002706E003A81A9AC05D1999C8
:10C3300090476D1C7F1C02988742F5DBE0030CD50B
:10C3400021461A9B199A049800F09EF9451904E0B9
:10C350001A9A3020199990476D1C0099481E009038
:10C360000029F5DC08E00D980D990078491C0D9125
:10C370001A9A199990476D1C0199481E019000293D
:10C38000F1DC63E1092801003031323334353637CE
:10C390003839616263646566000000003031323311
:10C3A00034353637383941424344454600000000B1
:10C3B00000F05AF94519761C3078002800D0E2E5E3
:10C3C00028461BB0F0BD600700D406271898C01D92
:10C3D000C108C90048680A680831C30FDB07189113
:10C3E000190001D09CA108E0210501D59BA104E022
:10C3F000E10701D09AA100E09AA1430011985B08DF
:10C40000109165280CD006DC452809D046281DD09F
:10C41000472841D141E0662818D067283CD13CE04C
:10C420000021112F01DB112000E0781C0191009008
:10C4300008A911A8FFF7E8FC139905910021119AAA
:10C4400015927F1C12980197009150E00120C007BF
:10C4500003900120019008A9009711A8FFF7D4FCD0
:10C46000139A149905920022119B00921298159329
:10C47000059A0192002901D0104602E0791C40186B
:10C480000190381A01D5019804E04042401E009006
:10C49000781C0190C01B029043E0012F00DA0127B5
:10C4A0000021112F01DD112000E03846019100909C
:10C4B00008A911A8FFF7A8FC13990591119A00216A
:10C4C000129815920091019721070CD40599B94251
:10C4D00001DB019900E00191012904DD159A491E53
:10C4E000515C302906D0B84201DA011D05DA01217C
:10C4F000029115E00199491EEDE7002805DC00993D
:10C50000411800910199091A03E0019A411C9142D6
:10C5100000DD01910099401A401C02900120C007E3
:10C520000390200706D402990198814202DB002083
:10C53000C043029000206946C87707AF01210398E5
:10C540000337C907884224D0022011902B20129073
:10C55000039800280CDA404203902D20129007E047
:10C560000A210398FEF7E2FD30317F1E03903970F7
:10C570001199481E11900029F2DC03980028EFD190
:10C58000791E129808703078202108404530BF1E6F
:10C59000387006A8C01BC01D0390109800780028B2
:10C5A00000D00120019941180298C017091803987A
:10C5B00009180498401A401E0490E00306D421464E
:10C5C0001A9B199A049800F05FF8451910980078A2
:10C5D000002803D01A9A199990476D1CE00324D5BE
:10C5E00021461A9B199A049800F04EF845191CE050
:10C5F0000098002807DB00990598884203DD15980C
:10C60000405C199901E0199930201A9A90470098D6
:10C610006D1C401C00900298401E0290002804D11E
:10C620001A9A2E20199990476D1C0199481E019065
:10C630000029DDDC05E038781A9A7F1C19999047AB
:10C640006D1C0399481E03900029F4DC21461A9BB7
:10C65000199A0498ACE600002D0000002B000000A1
:10C660002000000000000000F8B5044600251E462A
:10C670001746880404D405E039462020B0476D1CD5
:10C68000641EF9D52846F8BDFFB50446002581B0E3
:10C690001E46C80301D5302700E02027880404D5B2
:10C6A00005E038460399B0476D1C641EF9D528464D
:10C6B00005B0F0BD10B501220221002000F018FDE8
:10C6C000002801D0072812D107220221012000F002
:10C6D0000FFD002801D0072809D100210A220846B1
:10C6E00000F006FD002801D0072800D1002010BD71
:10C6F000044842680121C9050B46934383600A4000
:10C70000C26070470005005070B50024064D06E079
:10C710006968E000085C012101F0D4FA641C287803
:10C720008442F5D3002070BD24200020F8B51546C2
:10C730000C460646052A01D20720F8BD01F098FBF9
:10C74000002803D101F06AFB0028F6D1104900202F
:10C750004E600C70C8608D6008610E4D0DE0E00009
:10C7600069688019009181786A46517000780A4A98
:10C77000694601F0F7FA0028DFD12046641EE4B2D2
:10C780000028ECD1054A0021024800F04DF8F8BD20
:10C790002420002018ED0100B1D7010025D60100AA
:10C7A000BFF34F8F04490348C860BFF34F8F00BFEA
:10C7B000FDE700000400FA0500ED00E00EB50021E1
:10C7C000029000916A4601910148FFF7E9FF0EBD12
:10C7D0000140000010B58268C368934203D000F0A6
:10C7E000CDFF002010BD052010BD002906D0002A75
:10C7F00002D0531E134203D0092070470E20704709
:10C800000160838000218160C1600846704710B5D7
:10C810008268C3689A1A83889A4203D800F0B8FFE6
:10C82000002010BD042010BD094B9B68002B07D0D1
:10C83000002A07D0002805D00068037C002B03D015
:10C8400008207047072070474174426100207047FC
:10C8500038200020FFB59007002581B014460E4611
:10C86000002832D11B4F002C31D001F0C7FE0498B4
:10C8700078610320387033461821224600204B434C
:10C88000BC601834C10089180D704D708E704C60FA
:10C890001C19401C0328F5DBFD607D7001240E4847
:10C8A000BD702405046003211420FEF7BFFF0B4870
:10C8B00004600B4C0198A06003211120FEF7B6FF25
:10C8C00060683861002005B0F0BD0720FBE7BD605F
:10C8D000FBE700003820002080E200E000E100E0FB
:10C8E00000150140FEB50D461B49174689680446F0
:10C8F00000292AD0002C28D0052D01D20720FEBD0A
:10C900006069002821D0607C012820D0002602F038
:10C910005DF9C0001049019089684018694602F02D
:10C920007FF9002815D0012101700C494460496845
:10C930000830E2C0084901988968411868460078C3
:10C94000487001F09DFF0020FEBD0820FEBD2E4670
:10C95000DDE70420FEBD0000382000200015014066
:10C96000F8B5134D0446A96800291CD0002C1AD034
:10C970006069002817D00026267402F027F9C70046
:10C98000A8686946381802F04BF900280DD002213A
:10C9900001704460A868391868460078487001F052
:10C9A0006FFF3046F8BD0820F8BD0420F8BD000038
:10C9B0003820002010B5044609488168C268808884
:10C9C000511A814207D10121064801F0BDFA002821
:10C9D00001D0052010BD21460148FFF7FBFE10BD28
:10C9E000AC2800201D20002070B50446224888B0E5
:10C9F0001E460D0042601CD0A888296882B21F48DC
:10CA0000FFF7F3FE002815D1A889A96882B21B4858
:10CA10001030FFF7EAFE00280CD1202218496846A2
:10CA2000FEF79AFBA06806902079002804D0012127
:10CA300003E0072008B070BD002168460175067745
:10CA40006079002800D00E2069464875E078029091
:10CA5000A07803902078019060780090094968469A
:10CA600001F00EFA0028E5D101F094FA0248012104
:10CA7000401C01F069FADDE71C200020AC280020F2
:10CA8000D8EC0100F5E9010010B501460A48FFF7AE
:10CA9000BEFE04000ED101F023FB00280AD1074995
:10CAA0000548FFF797FE002804D10121034801F053
:10CAB000CBFA0446204610BDBC2800201C200020D4
:10CAC00070B500280AD00F4D2978002908D00446F7
:10CAD00001F078FD002805D0002070BD0E2070BD4B
:10CAE000082070BDE868062809D2074A8100891825
:10CAF00022880A8062884A80401CE860ECE70420B3
:10CB000070BD00000C200020B4260020002808D0B2
:10CB1000002205490123CA600B708A6048601046F4
:10CB200070470E20704700000C20002010B5002830
:10CB300011D000290FD0124A1278002A0BD00A888F
:10CB4000112A11D0302A07D0322A09D0332A02D133
:10CB5000091D01F051FC10BD091D01F0ADFC10BD17
:10CB6000091D01F0D1FB10BD8A88FF21AB31095AA4
:10CB70008A42F8D10021FF30A130C17110BD000000
:10CB80000C20002010B50B4600280ED0144A117856
:10CB900000290CD0D168002909D00446FF34A13403
:10CBA000E179002905D0112010BD0E2010BD08200C
:10CBB00010BDFF21AB310B52002191600246217262
:10CBC0000848A171018811804088508001211846D1
:10CBD00090DF0028ECD10120E071002010BD0000A2
:10CBE0000C200020B426002010B5044601F0E0FA25
:10CBF000204600F0AFF921460448FFF797FF0348AD
:10CC00002146103800F094F810BD00009C2400204C
:10CC100070B5054608780C4601280AD002281ED0B7
:10CC2000032805D118A10020FEF77AFE01F040FD8F
:10CC300070BD224661880A32284600F043F8002879
:10CC400001D0FFF7BBFD284600F0DCF8002801D03A
:10CC5000FFF7B4FD10A10020FEF762FE70BD0025B5
:10CC60000DE06068405DFFF70FFF0028F9D16068B4
:10CC7000405D3B2802D107A0FFF782F86D1C207AA7
:10CC8000A842EED870BD0000446973636F6E6E6594
:10CC9000637465640D0A00005468652064657669F4
:10CCA00063652068617320746865204E6F726469E3
:10CCB00063205541525420536572766963650D0AAD
:10CCC0000000000000280AD04180002A05D05188C9
:10CCD000C1801188818091880181002070470E20D9
:10CCE0007047000030B5114B0D4604000FCB85B0E6
:10CCF00003936B4607C317D0002D15D02146684615
:10CD000063DF00280ED121786846817401210182F9
:10CD1000881E60802868E0600020A080208104A830
:10CD2000FFF7CEFE05B030BD0E20FBE7B0EC0100F2
:10CD30001FB500282DD000292BD04288154B9A42D0
:10CD400002D08C88A24224D10C88112C14D0392C0A
:10CD50001FD18288002A1CD08B89934219D1C268C6
:10CD6000002A16D002236A4613700A461232019234
:10CD7000097C6A46117209E08988914209D1C1682B
:10CD8000002906D003216A4611704380C2686946B3
:10CD900090471FBDFFFF00007FB500220092019267
:10CDA000029203920B460A780E33002A29D18A8810
:10CDB000012A26D18A790478A24222D1002213E0E6
:10CDC0000C2454431D5B022D02D0032D0BD104E033
:10CDD000E41824896D46EC8105E0E41826896D4647
:10CDE0006E816489AC81521C0C7A9442E8D8C26886
:10CDF000002A06D04A8869464A8001220A70C26821
:10CE000090477FBD1FB5010018D048880D4A904259
:10CE100016D0C988002913D001236A461373002352
:10CE20005373094B1A695B69009201936A465180FA
:10CE300003A90291694698DF04B010BD0E20FBE7FC
:10CE40000820F9E7FFFF0000B0EC01003EB5002824
:10CE500003D0142A03D907203EBD0E203EBD4388CF
:10CE6000094CA34201D108203EBD084D38CD0093A6
:10CE70000295019404896B465C80DA8002914088B7
:10CE8000694698DF3EBD0000FFFF0000CCEC0100CA
:10CE900000B5174887B0406805900023482215491F
:10CEA00005A801F091FC002801D0FFF787FC6A4635
:10CEB0000021012001F070FC002801D0FFF77EFC6A
:10CEC0000D4801F007FC002801D0FFF777FC684609
:10CED00001F058FC002801D0FFF770FC074801F072
:10CEE00047FC002801D0FFF769FC07B000BD000037
:10CEF00048EC01000C210020E01C0020E9CB0100DF
:10CF00007CB5134E00250C463060002918D06946C8
:10CF1000002000F0B5F8002819D101A9012000F087
:10CF2000AFF8002813D1684601790020002901D00C
:10CF3000022004E069460978002900D00B20207007
:10CF40007068002802D1FFF7B5FB054628467CBD76
:10CF50000420002010B51C4C0188606810290DD0F9
:10CF600011290AD1401E606007D1FFF7A3FB0028FA
:10CF700003D02168002900D0884710BD00281ED1A9
:10CF800000210122084600F0B3F8002801D007284C
:10CF900011D107220221012000F0AAF8002801D0B7
:10CFA000072808D104220221002000F0A1F800285F
:10CFB00005D0072803D02168002900D08847606881
:10CFC000401C606010BD00000420002010B503204C
:10CFD00000F00CFA002801D0062800D1002010BD76
:10CFE000F8B507460024234802E0641C042C1AD23A
:10CFF000A2008258BA42F8D1042C14D21D481E4E09
:10D000000C38002929D001290ED002290BD160004B
:10D01000201880194578002D05D01848016900298D
:10D0200001D028468847F8BD61006118755C8E19EB
:10D03000717800290CD011490A224968806851434F
:10D040000E4A521CFFF74EFC002801D10B484770D6
:10D050000A48B17814300155DDE78068FFF780FC9D
:10D0600006486100611814308919005D8D78A84266
:10D07000D1D0F8BD80EC010088260020EC1F0020F4
:10D0800004280CD2074A1269074B80001B5C012060
:10D090009840904300D00120087000207047002085
:10D0A000FAE700000005005080EC010010B50428EC
:10D0B00013D00A2810D1002000F03EF8002801D03B
:10D0C000FFF77CFBFFF782FF002801D0FFF776FB1C
:10D0D0003CDF08E0FFF772FB10BD044813214088D5
:10D0E00076DF0828F8D00028F4D110BD8C24002069
:10D0F00070B50023042811D2440004190D4D012AF3
:10D1000002D101290DD0002246008019094E801954
:10D1100000290CD0012906D0022906D00723184681
:10D1200070BD0D30C2B22A55F9E74270F7E7827040
:10D13000F5E700008826002010B5054A0146127A5E
:10D140000020D20702D0084600F054F810BD0000BD
:10D15000EC1F002070B50E46204905464E608D60DC
:10D1600000200A61A9071ED500240122114620468D
:10D17000FFF7BEFF641C042C02D20028F5D012E099
:10D18000002810D1720804211548FFF7CFFA0028B3
:10D1900009D1FFF7B9FA002805D11148114A002139
:10D1A0001438FFF741FBE90706D00F220E4952055C
:10D1B0008A600023CB608A6100280DD108480B4AA1
:10D1C00000211C38FFF730FB002805D10448084A2D
:10D1D00001211838FFF728FB70BD0000EC1F00206C
:10D1E00090EC010029D4010000050050E9D90100AC
:10D1F000F1C60100FEB57A4D0722EB6892059A430D
:10D2000002936B6800939C0006461B1900200121C5
:10D21000019349050746734C3300FEF7D8FD180DFE
:10D220001515374755677C887F8891DE9E9E9E9EA8
:10D230009EC8CED1D8DEDE140F21029A4905914353
:10D24000A160E7602F70FEBDA260E76060680F22FA
:10D2500052055040800209D5A160E760022E02D13C
:10D26000E120C0000AE07D20400107E0E160A76006
:10D27000022E01D1C82001E0FF2091302E706421E0
:10D28000FDF754FF0099414300223FE0A260E760B0
:10D2900060680F2252055040800204D5A160E7600B
:10D2A00019204001EAE7E160A760E3E7A260E760D8
:10D2B00060680F2252055040800202D5A160E760ED
:10D2C000D1E7E160A760D7E7A260E76060680F225E
:10D2D00052055040800202D5A160E76001E0E160A4
:10D2E000A7602E700098410000220FE0A260E76066
:10D2F00060680F2252055040800202D5A160E760AD
:10D3000001E0E160A7602E700099002236480068B5
:10D31000FFF7E8FAFEBDA260E7601BE0616801204C
:10D32000800502468A43A2600140E16010E0606827
:10D33000012189050A468243A2600840E060E3E7D4
:10D340006068012189050A468243A2600840E060C6
:10D350000199C9E7E160A7602DE023484068FFF725
:10D36000FFFA11218A1B01D0002807D00F22E9689B
:10D3700052051140A160E760EF60FEBD0121C905C3
:10D38000E960012A0CD91046C82148436421FDF701
:10D39000CDFE69680022414313484068FFF7A2FAB6
:10D3A0000F22E96852051140E160A760FEBD0F2120
:10D3B0004905A160E7602E70FEBD07229205AAE72D
:10D3C0000D214905A160E76001218905C2E703211C
:10D3D000C905A160E7608910BCE70F214905B9E7DD
:10D3E000EC1F00200005005074EC0100F0B5002196
:10D3F0000B4C0C4D03273F048A00A258920056198B
:10D40000326801238B40034000D00323BA431B043E
:10D4100013433360491C0429EED30020F0BD000003
:10D4200080EC01000007005010B500780221FFF7E2
:10D43000D7FD10BD0022D243830004490428CA50FE
:10D4400002D308182030027770470000CC28002053
:10D45000F0B50025ED43002A02D00023042601E0A8
:10D46000042308260B4C04E09F00E7597F1C04D0DE
:10D470005B1CB342F8D32846F0BD26185DB22036B7
:10D4800035709E00A151002AF5D1E11820310877AE
:10D49000F1E70000CC280020024909182020085696
:10D4A00070470000CC28002038B50B460146FF31FC
:10D4B0000246A13188794624604380184A79002ABF
:10D4C00008D0521ED2B20C214A431118498A6A462A
:10D4D000491C01E0C1886A461180008950801146CC
:10D4E000184692DF38BD0000F8B52348C16800290E
:10D4F0003ED00E6821494C680769C078E11B0D02D7
:10D500002D0AED1C002814D101201D4A0004506092
:10D510001B4A403A50601B49400008601A490860A5
:10D520001A49012008602F20FDF7D4FD124901207F
:10D53000C870B54200D23546E81900020F4B000A08
:10D54000403318600D4A5168001B091B0902090A83
:10D550000002000AC91C814209D9506818602F20B6
:10D56000FDF7B8FD01200749400480390860F8BD87
:10D5700001F044F8F8BD00003820002000150140FB
:10D580004013014080E200E000E100E000100140B3
:10D5900010B501460148FFF7FFFB10BD8C240020A9
:10D5A000F7B50546FF350646A135A879462148431B
:10D5B00087196C790C206043C1193A79601C0A31D3
:10D5C00082B0904226D101AB0022304600F054F9DF
:10D5D000002822D010E0401EA04201D1002003E02C
:10D5E0000C206043C01916300246009001AB304653
:10D5F00000F042F9002807D003980021017001A92A
:10D60000049893DF05B0F0BD68790099401C641C54
:10D610006871E4B23879A042DDD803980121017025
:10D620000020EFE7F8B500260124154D23E06968D6
:10D63000F0004718387821462A698140114218D0F5
:10D640008A432A6100F0E0FB3A782146EB6891407A
:10D6500019400346934099420BD17978012901D0B2
:10D66000012100E000217B684140002B01D01046E1
:10D670009847761CF6B228788642D8D3F8BD0000C9
:10D6800024200020F7B5FF21A7311446095C46226B
:10D6900051430F18384600F095FF060033D01A4A60
:10D6A000906806282FD22146144650225043174D29
:10D6B0004622401941803946001DFDF74DFD019875
:10D6C0000027002804D0A068502148432F5404E0CC
:10D6D000A0680221502250432954A06850214143A0
:10D6E0004919401CCE64A060E16888420BD1002635
:10D6F00005E0502070434019C16C8847761CE068F3
:10D700008642F6D3A760FEBD0C200020CC26002068
:10D7100030B50D46FF21A7311446095C462251431E
:10D7200093B0081800F04EFF030005D0684644800F
:10D73000012101700195984713B030BD10B50E4915
:10D7400000234A788C78A24212D0521CD2B24A707E
:10D75000022A00D14B704A78074B920018339A582E
:10D760000260086910180002000A0861012010BD5B
:10D770000360002010BD00003820002082688388EC
:10D780001A4003689A5C0A708168491C816070477E
:10D79000C26883881A4003689954C168491CC160F3
:10D7A000704710B50446C0B2FFF76EF9204610BDB1
:10D7B000F8B50746104E0125BD403068FFF7D0F898
:10D7C00000280DD10D4C2069284207D1384600F0C1
:10D7D0001BFB0028E06804D0284303E0A843206135
:10D7E000F8BDA843E0602069002228432061A168B9
:10D7F0003068FFF777F8F8BD18ED0100242000200D
:10D80000F8B51C4C2078002833D02069002807D0B8
:10D810000026E068002805D00025002E04D011E085
:10D820000126F6E70125F8E7684652DF052804D00F
:10D83000002804D0FEF7C2FF04E0012602E02169BF
:10D8400000988847002D10D1608869460880A0683C
:10D8500061DF052804D0002804D0FEF7AFFF04E004
:10D86000012502E0E168A0688847002EDCD0002D89
:10D87000D3D0F8BDD420002030B50989002A05D0C6
:10D88000D088491C814213D1002030BD0246FF32AE
:10D89000A132947946256C4324182489A142F3D0FF
:10D8A000491C19809179462251430818008902E0E9
:10D8B0001980D088401E5880012030BD1048018C4E
:10D8C000C9B2012917D1818C090714D1018D09062C
:10D8D0000A0F03D1828D1206120F0ED0090F0129F3
:10D8E00003D1828D1206120F07D0032903D1808D38
:10D8F0000006000F01D00020704701207047000093
:10D90000C00F00F0F3B500240D4683B08E460935F4
:10D9100062E0285D29190190487802280AD003287E
:10D9200008D0042823D0052821D006283CD0072879
:10D930003AD04EE001980026470815E07000001923
:10D94000411902206A46891C64DF00280BD1684611
:10D95000018803980088814205D168468178039840
:10D960008078814232D0761CB742E7D831E0019806
:10D970000026870815E0B0000019411902206A4608
:10D98000891C64DF00280BD1684601880398008851
:10D99000814205D16846817803988078814215D00C
:10D9A000761CB742E7D814E010206A46891C64DF71
:10D9B00000280ED16846018803980088814208D16A
:10D9C0006846817803988078814202D1012005B0B1
:10D9D000F0BD01982418641C7046007AC008A0426B
:10D9E00097D80020F3E7000010B50448017AC90772
:10D9F00002D00078FFF7FEFB10BD0000EC1F0020F6
:10DA0000F8B52C49C8680A690C780F798968864688
:10DA1000944600913EE00099E20055182A7836E0DD
:10DA2000182353436968521CC918AB78D2B2934289
:10DA300000D100220B78022B02D0032B27D123E048
:10DA40004E680346014603E0B14204D00B46C96963
:10DA500000291CD0F8E7002919D08B4208D1C069F1
:10DA6000002805D1144F0126BE600026B4460127C8
:10DA70000E68C969D961002909D00B689B190B6030
:10DA800005E00174C06900E000210028F9D169783F
:10DA90009142C5D12146641EE4B20029BBD105499B
:10DAA00062460A61C8600F71704501D00120F8BD5F
:10DAB0000020F8BD3820002000100140F8B50446D1
:10DAC00031480026C168009107784EE02E48F900E1
:10DAD00080680D1843E0002C02D02046E4691FE066
:10DAE0002878182141436A68401CC0B25118287038
:10DAF000AA78904200D12E700A784868012A30D165
:10DB0000027C002A2DD18A684260CA6882600A6954
:10DB1000C260496981611C490979002900D04660C9
:10DB2000194943680A699C46991A0902174B090A60
:10DB3000994202D28268891807E06146511A0902A7
:10DB40008268090A8A4202D9511A016000E006601F
:10DB50004660012186600174C66100F099FE002CC8
:10DB6000B9D1287869788842BAD138467F1EFFB289
:10DB70000028ABD10448C1680098814201D001203F
:10DB8000F8BD0020F8BD000038200020FFFF7F0016
:10DB9000002388B0264A03211846FEF75BFE0028C2
:10DBA00001D0FEF70BFE234A04AB07CA07C3FF21CF
:10DBB0000131214800904018019103910290032304
:10DBC0001E4A694604A8FEF70FFF002801D0FEF7A1
:10DBD000F5FD1B4A1B490120FFF7BCFA002801D0C4
:10DBE000FEF7ECFD69460020FFF78AF9002801D016
:10DBF000FEF7E4FD1448FEF789FF002801D0FEF788
:10DC0000DDFDFFF745F91148009069461048FFF720
:10DC100069F8002801D0FEF7D1FD00F049FD0DA004
:10DC2000FEF7AEF848DF0028FCD0FEF7C7FDF9E7A5
:10DC30005423002068EC0100542100209DE90100DC
:10DC4000ADD00100CD0C000091D5010011CC010038
:10DC50008C2400205363616E207374617274656458
:10DC60000D0A00008207D30EFF229A408907090E91
:10DC700010B5994000280BDA03071B0F083B9C08DE
:10DC80000C4BA400E318DC6994430C43DC6107E00F
:10DC90008408094BA400E418236893430B432360D2
:10DCA000C106C90E01208840044908600449086083
:10DCB00010BD000000ED00E000E400E080E200E0C4
:10DCC00000E100E0F3B581B00F46019800F062FC7E
:10DCD000012400281E4E019817D0FFF7DDFB8019A4
:10DCE0002030007F8009032802D0012806D007E0F9
:10DCF0001848006901998C40204201D1022100E0BE
:10DD00000321019800F02CFAFEBD00F04FFC002822
:10DD1000FAD00198FFF7C0FB05468100C81D0E4AE6
:10DD2000F93089180A6980B222430A610B49401808
:10DD300000210160002FE7D00198FFF7ADFB8000C4
:10DD400030580028E0D00648AC404460FEBD0000DA
:10DD5000CC28002000050050006500400060004015
:10DD600000630040FEB5044623480E4600192021FA
:10DD700041560027C8171346401C01D0082738E039
:10DD8000F27819462046FFF763FB0546401C2FD06A
:10DD9000B078002807D01948A100091808680222A5
:10DDA0009043086007E000217378204600910A46FE
:10DDB000019100F09DF9F078002810D01048AA00D9
:10DDC0001018317802690F4B1A400261E206D20C3A
:10DDD0008907890B0A4301690A43026109E0064881
:10DDE000327840192030017F92011143017700E021
:10DDF00004273846FEBD0000CC2800200007005054
:10DE000000650040FFE0FCFF03490969C140C80705
:10DE1000C00F00D0012070470005005070B5124DB2
:10DE20002879002801D0082070BD0F490020403912
:10DE3000421E0B182033401CC0B21A702028F8D3A1
:10DE400000242046FFF7F6FA641CE4B2082CF8D34D
:10DE500003210620FFF706FF01200449C0074860A0
:10DE600001202871002070BD0C29002000630040B3
:10DE700002480079002800D0012070470C290020BA
:10DE8000F3B52A4C0746E07E81B0002801D0082077
:10DE9000FEBD002F00D1264F012638783146814043
:10DEA00024488160386800F050F90021786800F05B
:10DEB00043F9214DB8696862787D397D0843E86689
:10DEC00003CFE8606961387B083F01280FD100214A
:10DED000B86800F031F9387B3146814015488160DF
:10DEE000F86800F032F9F968B868A960286102980A
:10DEF00060603969216000280ED0FF230F481D3370
:10DF0000397F0022C250FF234533C2500D4A0C48CE
:10DF100050600220FFF7A6FE042028600020E07574
:10DF20002076A075E676A076FEBD000014290020BC
:10DF3000F8EC0100000500500025004000200040E2
:10DF40008000020000230040F8B5104B81245E6879
:10DF50000022A4000E4D002E00D0AC60DF7D002F0B
:10DF60000BD01A7E002A04D0002E00D06C60112045
:10DF7000F8BD18610122197604E0D9750024D86033
:10DF80005C761C7600F012F8F8BD00001429002021
:10DF90000023004010B5044CA07E002803D100F0FF
:10DFA00079FB0120A07610BD14290020F8B5234D7F
:10DFB000A87E104301D100F06DFB6868204C00285A
:10DFC00005D081201F49800048600020F8BDFF2057
:10DFD000453000212150FF212531204600F0DAF89C
:10DFE0000546FF210931204600F0D4F80746FF21FD
:10DFF0004531204600F0CEF80646394631432943E4
:10E00000E9D02846304306D100F01AFB0B48C17D09
:10E01000407E8142DFD800210848002DC17501D023
:10E020000320F8BD002E01D00F20F8BD817E012015
:10E03000002901D02060C8E76060C6E714290020ED
:10E04000002000400023004010B5034600F048F8CF
:10E05000002801D0112010BD034A00209175936063
:10E06000908200F003F810BD14290020F8B50026B6
:10E07000194FFF251D357E510120B86000F068FC66
:10E08000164C6168002910D022E0FF27013729468D
:10E09000114800F07FF8002802D1A08AB842F6D1DA
:10E0A000A08AB84201D000F053FCA08AA17D88422A
:10E0B000EBD3A18AC81FF9380CD0074F2946384640
:10E0C00000F068F80028F9D00120F8600020A07561
:10E0D0003046F8BD0F26F9E7002000401429002043
:10E0E0000248807D002800D00120704714290020BC
:10E0F00030B552000A439900039C0A432102049D53
:10E100000A4329040A43024980004018026030BDD6
:10E110000007005030B552000A439900039C0A439F
:10E120002102049D0A4329040A4302498000401841
:10E13000026030BD000700501CB500220B46009263
:10E1400011460192FFF7E6FF1CBD1CB500210091AE
:10E150000B46012201911146FFF7DCFF1CBD0000B8
:10E16000820006481018026803231B049A430260C9
:10E17000026809040A43026070470000000700506B
:10E18000034940180068012800D0002070470000B3
:10E19000006000404058002800D001207047032252
:10E1A000120280184068084000D00120704700002B
:10E1B0001FB50446011D00881B2849D009DC102822
:10E1C00032D013282FD10023A0881A4685217FDF63
:10E1D00039E01D2805D01F2825D10888091D75DFC5
:10E1E00031E0091D0C462348FFF78CFB00281AD0AC
:10E1F000204A20460832114608318CDF002812D10F
:10E20000FEF79AFF002801D0FEF7D8FAA3796279C9
:10E210002179E07803936B4607C3A378627816A14F
:10E220000020FDF77DFB1FBD1FA10020FDF778FB3F
:10E230000720FEF781FF002801D0FEF7BFFAA18872
:10E240001F48FEF79FFC0028EDD0FEF7B7FA1FBD70
:10E250000879022806D00328F9D11AA10020FDF779
:10E260005FFB1FBD21A10020FDF75AFB00F020FA43
:10E270001FBD000048EC0100436F6E6E656374695A
:10E280006E6720746F207461726765742025303268
:10E290007825303278253032782530327825303282
:10E2A00078253032780D0A00436F6E6E65637465B1
:10E2B0006420746F207461726765740D0A00000039
:10E2C0009C2400205B4150504C5D3A20436F6E6EA1
:10E2D000656374696F6E205265717565737420741F
:10E2E000696D6564206F75742E0D0A005B41505096
:10E2F0004C5D3A205363616E2074696D6564206FD4
:10E3000075742E0D0A000000F3B583B003980C4617
:10E31000FF3081300988408D81425BD1039F4621C7
:10E32000FF37A137B8794843039946186088002819
:10E330003DD12046083001903579207A28180528EB
:10E3400000D9052030710020009014E000980A21C7
:10E35000484301990A2241180C2068438019029011
:10E360000A30891CFCF7F8FE02980021818200988F
:10E37000401C6D1C00903079A842E7D80C20454322
:10E38000A819C288B87946230399584340180089D0
:10E3900082420CD23079052809D0787121880398FF
:10E3A000FFF782F8010015D00020F87109E0002580
:10E3B0007D71228869460398FFF7F2F801000BD0BF
:10E3C000FD7122880398FFF7A3F90A480321017021
:10E3D0002188418005B0F0BD684600780028F9D05A
:10E3E000228801210398FFF74DF92188039800F056
:10E3F0009BF8EFE7CC260020F8B50546FF300C4629
:10E4000081300988408D814243D12E46FF36A136A6
:10E41000B07946214843421970790C23584380183B
:10E420000A308646214660880831002813D10F88BB
:10E430001F4BBC460DE0062747437F18BF889F420D
:10E4400006D106235843401841887046418102E0B6
:10E45000401C8445EFD80027684607707079117911
:10E46000401C884203D101206946087016E0707193
:10E47000228869462846FFF793F801000AD0F77111
:10E4800022882846FFF744F90A48032101702188B1
:10E490004180F8BD684600780028FAD02288012122
:10E4A0002846FFF7EFF82188284600F03DF8F8BD30
:10E4B00002290000CC26002070B50646FF360C4627
:10E4C0000546A136B079462148434119FF20AB30BB
:10E4D0002288405B82420AD16088002808D000214F
:10E4E0002846FFF7CFF82188284600F01DF870BDB8
:10E4F00062890A80A2894A80E289CA80208A0881CA
:10E5000021882846FEF7D0FF0100F0D00020F071EE
:10E5100022882846FFF7FCF8024803210170218871
:10E52000418070BDCC260020F8B50446FF34064675
:10E53000A134207A0F46401CC0B214492072C96829
:10E54000002588421FD26571A0794621401CC0B2C7
:10E5500041438A19A0710E4980004018018811803A
:10E560004088508015710121384690DF010009D0A4
:10E57000E5713A463046FFF7CBF8054803211830DD
:10E5800001704780F8BDE571F7E700000C2000201E
:10E59000B42600200449081820214156042901DB33
:10E5A0000120704700207047CC280020044908183B
:10E5B00020214156042901D20120704700207047D4
:10E5C000CC280020F0B50C4B00210A4ADC680CE096
:10E5D0008D00AE18B6788778BE4205D1555B0688A7
:10E5E000B54201D15868F0BD491CA142F0D30020CA
:10E5F000F0BD0000B42600200C20002070B50124DE
:10E600000B49600408600B49401088600949403993
:10E610008860094D6C602F20FCF75CFDAC60074DF5
:10E6200000242F202C61FCF755FDEC7070BD00001C
:10E6300080E100E04013014000100140382000203C
:10E6400030B50A48FF21C57D0022094C0931094B2C
:10E65000002D625007D09969437EC268D154417E33
:10E66000491C417630BD986930BD00001429002056
:10E6700000200040002500401FB501236A461370AA
:10E6800010720348019106C8684690471FBD0000FC
:10E6900014290020FF220548253200218150FF2245
:10E6A00009328150012101607047000000200040C4
:10E6B00010B507488ADF002801D0FEF77FF8012057
:10E6C000FEF73AFD002801D0FEF778F810BD0000F3
:10E6D00058EC010008B502490020009108BD000077
:10E6E000E81F002010B50121202805DA1A4A8140D0
:10E6F000114201D1194810BD8107C90E002808DA5E
:10E700000207120F083A9208154B9200D218D269EC
:10E7100004E08208134B9200D2181268CA40110616
:10E72000890F042911D200290FD002290DD00E49DA
:10E730004C68C306DB0E01229A40002C08D0400929
:10E7400080000B5813430B5004E00448401C10BDDC
:10E7500006480260002010BDFC06FFBC012000003E
:10E7600000ED00E000E400E0E820002000E100E02F
:10E77000002803D00249C860002070470E2070476F
:10E78000D42000201CB5034901910091694660DF47
:10E790001CBD0000E81F002070B50E46054614465B
:10E7A00014211046FCF7F1FC01200021208021619A
:10E7B000217326726572002D00D0A072002070BDFA
:10E7C00010B5FDF7EDFF10BD70B5002901D08C0725
:10E7D00001D0072070BD074C0125A1606280064969
:10E7E000636010DF0028F5D125701620FFF77AFF4F
:10E7F00070BD0000D4200020C1E70100FEB51F4C11
:10E8000000252769E06802906846FEF797FF0190AF
:10E81000FFF7F6F806460198002822D0002300985A
:10E82000E16817E00E680A46864202D9301A08608D
:10E8300012E0801BF31800261660D668D169B44632
:10E84000002E07D0FE183602360A566066469660DD
:10E85000D56115460029E5D12846E160FFF72EF97C
:10E8600006E02846FFF72AF9002801D1002E02D041
:10E870000298FEF739FE00202071FEBD38200020EE
:10E8800001200249000508607047000000E200E036
:10E8900010B50E4BD968002906D002680C68A24258
:10E8A00004D8A21A0A60C161D86010BD0B4604E00A
:10E8B0000B46C969121B002904D00C689442F7D397
:10E8C000A41A0C600260C161D86110BD382000201C
:10E8D000F8B51D4DEC68002C34D01C48002740686A
:10E8E0002969401A0602360A2068B04218D8361A3A
:10E8F000C7192246107CE46900280FD0002010744C
:10E900006B69002B07D0916950699847002805D0A2
:10E91000FDF754FF02E0516990698847002CE3D16C
:10E920006978A878814206D1401CC0B2A87002283C
:10E9300001D10020A87004490006800D18310F5045
:10E94000FFF79EFFF8BD00003820002000150140B1
:10E95000FF2107481D31002242500648828A816803
:10E96000895C828A521C82820348C1617047000020
:10E970000020004014290020002500401FB5002180
:10E980006A4611701072044882680192817506C847
:10E99000684690471FBD00001429002070B501781B
:10E9A000002907D0012901D0022902D14068FDF7D2
:10E9B00005FF70BD0D4C0C4D20782818FDF7FAFFAF
:10E9C0002078401CC0B2291820702039C97F0A293C
:10E9D00001D01428EDD3227803490548FEF736FA12
:10E9E0000028F8D1207070BDF8200020E81F00201A
:10E9F0008C2400207CB50178284D01290AD00229F9
:10EA00002FD000292CD129462548FDF7E3FE002808
:10EA100033D036E04068017821481038FDF7F7FE22
:10EA20001F4C103C002805D001216A46117001904E
:10EA3000684608E0A068E168081A012805D10020AE
:10EA400069460870684669688847A068E168081ADE
:10EA5000A188884204D811480121401CFFF774FAAC
:10EA60007CBD02216A461170C06801900B480121EB
:10EA7000401CFFF769FA68460CE001210748FFF7E0
:10EA8000E3FA07488168C0688842E9D103206946F3
:10EA900008706846696888477CBD00001C2000201B
:10EAA000BC280020F0B5454D012185B0490228461B
:10EAB000FFF775FB01270026414C002824D0FF21D9
:10EAC00025312846FFF766FB00281DD0FF202530A2
:10EAD0002E5081203B4980008860A07E002800D114
:10EAE0006F6002216846017037490868086003902A
:10EAF000E17D68460172E0680190E675267606CCF5
:10EB00006846083C90472BE004212846FFF747FB66
:10EB1000002825D0FF2109312846FFF73BFB0028BC
:10EB20001ED0FFF78DFDE07D617E884218D1207EEA
:10EB3000002808D0627EE168E0752069E0602676F2
:10EB4000667610460AE0A07E002800D16F60812022
:10EB50001C4980008860E675607EE168FFF78CFDE7
:10EB6000FF211D312846FFF715FB00280DD0A18A93
:10EB7000A07D814202D2FFF7EBFE06E0FF211D31AE
:10EB80006E50002801D0FFF7F9FEFF2145312846DD
:10EB9000FFF700FB00280ED0FF2045302E50A07E4E
:10EBA000002800D02F60E07D002804D0E675607E4C
:10EBB000E168FFF761FD05B0F0BD000000200040F6
:10EBC000142900200023004080240040EFF305803A
:10EBD000C005C00D1AD0103840B2002808DA01076D
:10EBE000090F083989080C4A89008918C96904E0A5
:10EBF00081080A4A8900891809688007C00EC14047
:10EC00000806800F012803D0032803D00220704794
:10EC1000002070470120704700ED00E000E400E0B4
:10EC200042788378521CD2B2934200D100220378FA
:10EC3000934201D1002070470A7041684078182241
:10EC40005043081870470000010002000010020045
:10EC500010003C00000090010100000000000000D6
:10EC6000A0005000000000000B09080A000000008E
:10EC700000E0D701482600206826002094260020C6
:10EC8000110000001200000013000000140000003A
:10EC900011000300E1CF010012000300E1CF0100E9
:10ECA00013000300E1CF010014000300E1CF0100D5
:10ECB0009ECADC240EE5A9E093F3A3B50000406EE4
:10ECC000010100000000020000000000020100003D
:10ECD0000000000000000000090000000B00000020
:10ECE0000A00000008000000000000000000000012
:10ECF00000E0D70103000000090000000B00000045
:10ED00000A000000080000000000000000000000F1
:10ED100000E0D701030000003029002003000000BC
:10ED20003031323334353637383941424344454641
:10ED30005465726D696E616C000000005CED01004D
:10ED4000E81F002010010000E8BD01006CEE01008A
:10ED5000F820002068140000F8BD01000000000049
:10ED600000000000000000000000000000000000A3
:10ED70000000000000000000000000000000000093
:10ED80000000000000000000000000000000000083
:10ED90000000000000000000000000000000000073
:10EDA0000000000000000000000000000000000063
:10EDB0000000000000000000000000000000000053
:10EDC0000000000000000000000000000000000043
:10EDD000534547474552205254540000000000005C
:10EDE000020000000200000030ED01005029002068
:10EDF000000400000000000000000000000000000F
:10EE00000000000000000000000000000000000002
:10EE1000000000000000000030ED0100502D002037
:10EE200010000000000000000000000000000000D2
:10EE300000000000000000000000000000000000D2
:10EE400000000000000000000000000000000000C2
:10EE500000000000000000000000000000000000B2
:0CEE6000000000000024F400000000008E
:040000050001B0C185
:00000001FF
